{
  "contractName": "ZombieHelper",
  "abi": [
    {
      "anonymous": false,
      "inputs": [
        {
          "indexed": false,
          "internalType": "uint256",
          "name": "zombieId",
          "type": "uint256"
        },
        {
          "indexed": false,
          "internalType": "string",
          "name": "name",
          "type": "string"
        },
        {
          "indexed": false,
          "internalType": "uint256",
          "name": "dna",
          "type": "uint256"
        }
      ],
      "name": "NewZombie",
      "type": "event"
    },
    {
      "anonymous": false,
      "inputs": [
        {
          "indexed": true,
          "internalType": "address",
          "name": "previousOwner",
          "type": "address"
        },
        {
          "indexed": true,
          "internalType": "address",
          "name": "newOwner",
          "type": "address"
        }
      ],
      "name": "OwnershipTransferred",
      "type": "event"
    },
    {
      "inputs": [
        {
          "internalType": "string",
          "name": "_name",
          "type": "string"
        }
      ],
      "name": "createRandomZombie",
      "outputs": [],
      "stateMutability": "nonpayable",
      "type": "function"
    },
    {
      "inputs": [
        {
          "internalType": "uint256",
          "name": "_zombieId",
          "type": "uint256"
        },
        {
          "internalType": "uint256",
          "name": "_kittyId",
          "type": "uint256"
        }
      ],
      "name": "feedOnKitty",
      "outputs": [],
      "stateMutability": "nonpayable",
      "type": "function"
    },
    {
      "inputs": [],
      "name": "isOwner",
      "outputs": [
        {
          "internalType": "bool",
          "name": "",
          "type": "bool"
        }
      ],
      "stateMutability": "view",
      "type": "function"
    },
    {
      "inputs": [],
      "name": "owner",
      "outputs": [
        {
          "internalType": "address",
          "name": "",
          "type": "address"
        }
      ],
      "stateMutability": "view",
      "type": "function"
    },
    {
      "inputs": [],
      "name": "renounceOwnership",
      "outputs": [],
      "stateMutability": "nonpayable",
      "type": "function"
    },
    {
      "inputs": [
        {
          "internalType": "address",
          "name": "_address",
          "type": "address"
        }
      ],
      "name": "setKittyContractAddress",
      "outputs": [],
      "stateMutability": "nonpayable",
      "type": "function"
    },
    {
      "inputs": [
        {
          "internalType": "address",
          "name": "newOwner",
          "type": "address"
        }
      ],
      "name": "transferOwnership",
      "outputs": [],
      "stateMutability": "nonpayable",
      "type": "function"
    },
    {
      "inputs": [
        {
          "internalType": "uint256",
          "name": "",
          "type": "uint256"
        }
      ],
      "name": "zombieToOwner",
      "outputs": [
        {
          "internalType": "address",
          "name": "",
          "type": "address"
        }
      ],
      "stateMutability": "view",
      "type": "function"
    },
    {
      "inputs": [
        {
          "internalType": "uint256",
          "name": "",
          "type": "uint256"
        }
      ],
      "name": "zombies",
      "outputs": [
        {
          "internalType": "string",
          "name": "name",
          "type": "string"
        },
        {
          "internalType": "uint256",
          "name": "dna",
          "type": "uint256"
        },
        {
          "internalType": "uint32",
          "name": "level",
          "type": "uint32"
        },
        {
          "internalType": "uint32",
          "name": "readyTime",
          "type": "uint32"
        },
        {
          "internalType": "uint16",
          "name": "winCount",
          "type": "uint16"
        },
        {
          "internalType": "uint16",
          "name": "lossCount",
          "type": "uint16"
        }
      ],
      "stateMutability": "view",
      "type": "function"
    },
    {
      "inputs": [],
      "name": "withdraw",
      "outputs": [],
      "stateMutability": "nonpayable",
      "type": "function"
    },
    {
      "inputs": [
        {
          "internalType": "uint256",
          "name": "_fee",
          "type": "uint256"
        }
      ],
      "name": "setLevelUpFee",
      "outputs": [],
      "stateMutability": "nonpayable",
      "type": "function"
    },
    {
      "inputs": [
        {
          "internalType": "uint256",
          "name": "_zombieId",
          "type": "uint256"
        }
      ],
      "name": "levelUp",
      "outputs": [],
      "stateMutability": "payable",
      "type": "function"
    },
    {
      "inputs": [
        {
          "internalType": "uint256",
          "name": "_zombieId",
          "type": "uint256"
        },
        {
          "internalType": "string",
          "name": "_newName",
          "type": "string"
        }
      ],
      "name": "changeName",
      "outputs": [],
      "stateMutability": "nonpayable",
      "type": "function"
    },
    {
      "inputs": [
        {
          "internalType": "uint256",
          "name": "_zombieId",
          "type": "uint256"
        },
        {
          "internalType": "uint256",
          "name": "_newDna",
          "type": "uint256"
        }
      ],
      "name": "changeDna",
      "outputs": [],
      "stateMutability": "nonpayable",
      "type": "function"
    },
    {
      "inputs": [
        {
          "internalType": "address",
          "name": "_owner",
          "type": "address"
        }
      ],
      "name": "getZombiesByOwner",
      "outputs": [
        {
          "internalType": "uint256[]",
          "name": "",
          "type": "uint256[]"
        }
      ],
      "stateMutability": "view",
      "type": "function"
    }
  ],
  "bytecode": "0x60806040526010600155600154600a6200001a91906200028b565b6002556201518060035566038d7ea4c680006008553480156200003c57600080fd5b50336000806101000a81548173ffffffffffffffffffffffffffffffffffffffff021916908373ffffffffffffffffffffffffffffffffffffffff16021790555060008054906101000a900473ffffffffffffffffffffffffffffffffffffffff1673ffffffffffffffffffffffffffffffffffffffff16600073ffffffffffffffffffffffffffffffffffffffff167f8be0079c531659141344cd1fd0a4f28419497f9722a3daafe3b4186f6b6457e060405160405180910390a3620002dc565b7f4e487b7100000000000000000000000000000000000000000000000000000000600052601160045260246000fd5b60008160011c9050919050565b6000808291508390505b60018511156200018c57808604811115620001645762000163620000fe565b5b6001851615620001745780820291505b808102905062000184856200012d565b945062000144565b94509492505050565b600082620001a757600190506200027a565b81620001b757600090506200027a565b8160018114620001d05760028114620001db5762000211565b60019150506200027a565b60ff841115620001f057620001ef620000fe565b5b8360020a9150848211156200020a5762000209620000fe565b5b506200027a565b5060208310610133831016604e8410600b84101617156200024b5782820a905083811115620002455762000244620000fe565b5b6200027a565b6200025a84848460016200013a565b92509050818404811115620002745762000273620000fe565b5b81810290505b9392505050565b6000819050919050565b6000620002988262000281565b9150620002a58362000281565b9250620002d47fffffffffffffffffffffffffffffffffffffffffffffffffffffffffffffffff848462000195565b905092915050565b61214f80620002ec6000396000f3fe6080604052600436106100e85760003560e01c80635faf28801161008a5780638f32d59b116100595780638f32d59b146102c2578063c39cbef1146102ed578063ccf670f814610316578063f2fde38b1461033f576100e8565b80635faf28801461022e578063715018a6146102575780637bff0a011461026e5780638da5cb5b14610297576100e8565b80633ccfd60b116100c65780633ccfd60b146101745780634412e1041461018b578063528b7b8f146101c85780635f4623f114610205576100e8565b80630ce90ec2146100ed57806317a7f4cc146101095780632052465e14610132575b600080fd5b610107600480360381019061010291906112c2565b610368565b005b34801561011557600080fd5b50610130600480360381019061012b91906112ef565b6103fe565b005b34801561013e57600080fd5b50610159600480360381019061015491906112c2565b61051c565b60405161016b9695949392919061140a565b60405180910390f35b34801561018057600080fd5b5061018961062c565b005b34801561019757600080fd5b506101b260048036038101906101ad91906114d0565b6106f9565b6040516101bf91906115bb565b60405180910390f35b3480156101d457600080fd5b506101ef60048036038101906101ea91906112c2565b61084b565b6040516101fc91906115ec565b60405180910390f35b34801561021157600080fd5b5061022c600480360381019061022791906114d0565b61087e565b005b34801561023a57600080fd5b50610255600480360381019061025091906112ef565b6108d3565b005b34801561026357600080fd5b5061026c6109bb565b005b34801561027a57600080fd5b506102956004803603810190610290919061173c565b610a8a565b005b3480156102a357600080fd5b506102ac610b0b565b6040516102b991906115ec565b60405180910390f35b3480156102ce57600080fd5b506102d7610b34565b6040516102e491906117a0565b60405180910390f35b3480156102f957600080fd5b50610314600480360381019061030f919061181b565b610b8b565b005b34801561032257600080fd5b5061033d600480360381019061033891906112c2565b610c7f565b005b34801561034b57600080fd5b50610366600480360381019061036191906114d0565b610c9a565b005b600854341461037657600080fd5b60016004828154811061038c5761038b61187b565b5b906000526020600020906003020160020160009054906101000a900463ffffffff166103b891906118d9565b600482815481106103cc576103cb61187b565b5b906000526020600020906003020160020160006101000a81548163ffffffff021916908363ffffffff16021790555050565b6000600760009054906101000a900473ffffffffffffffffffffffffffffffffffffffff1673ffffffffffffffffffffffffffffffffffffffff1663e98b7f4d836040518263ffffffff1660e01b815260040161045b9190611911565b61014060405180830381865afa158015610479573d6000803e3d6000fd5b505050506040513d601f19601f8201168201806040525081019061049d919061196d565b9091929394959697985090919293949596975090919293949596509091929394955090919293945090919293509091925090915090508091505061051783826040518060400160405280600581526020017f6b69747479000000000000000000000000000000000000000000000000000000815250610cb7565b505050565b6004818154811061052c57600080fd5b906000526020600020906003020160009150905080600001805461054f90611a7b565b80601f016020809104026020016040519081016040528092919081815260200182805461057b90611a7b565b80156105c85780601f1061059d576101008083540402835291602001916105c8565b820191906000526020600020905b8154815290600101906020018083116105ab57829003601f168201915b5050505050908060010154908060020160009054906101000a900463ffffffff16908060020160049054906101000a900463ffffffff16908060020160089054906101000a900461ffff169080600201600a9054906101000a900461ffff16905086565b610634610b34565b61063d57600080fd5b6000610647610b0b565b905060008173ffffffffffffffffffffffffffffffffffffffff164760405161066f90611add565b60006040518083038185875af1925050503d80600081146106ac576040519150601f19603f3d011682016040523d82523d6000602084013e6106b1565b606091505b50509050806106f5576040517f08c379a00000000000000000000000000000000000000000000000000000000081526004016106ec90611b3e565b60405180910390fd5b5050565b60606000600660008473ffffffffffffffffffffffffffffffffffffffff1673ffffffffffffffffffffffffffffffffffffffff1681526020019081526020016000205467ffffffffffffffff81111561075657610755611611565b5b6040519080825280602002602001820160405280156107845781602001602082028036833780820191505090505b5090506000805b600480549050811015610840578473ffffffffffffffffffffffffffffffffffffffff166005600083815260200190815260200160002060009054906101000a900473ffffffffffffffffffffffffffffffffffffffff1673ffffffffffffffffffffffffffffffffffffffff160361082d57808383815181106108125761081161187b565b5b602002602001018181525050818061082990611b5e565b9250505b808061083890611b5e565b91505061078b565b508192505050919050565b60056020528060005260406000206000915054906101000a900473ffffffffffffffffffffffffffffffffffffffff1681565b610886610b34565b61088f57600080fd5b80600760006101000a81548173ffffffffffffffffffffffffffffffffffffffff021916908373ffffffffffffffffffffffffffffffffffffffff16021790555050565b60148281600482815481106108eb576108ea61187b565b5b906000526020600020906003020160020160009054906101000a900463ffffffff1663ffffffff16101561091e57600080fd5b836005600082815260200190815260200160002060009054906101000a900473ffffffffffffffffffffffffffffffffffffffff1673ffffffffffffffffffffffffffffffffffffffff163373ffffffffffffffffffffffffffffffffffffffff161461098a57600080fd5b836004868154811061099f5761099e61187b565b5b9060005260206000209060030201600101819055505050505050565b6109c3610b34565b6109cc57600080fd5b600073ffffffffffffffffffffffffffffffffffffffff1660008054906101000a900473ffffffffffffffffffffffffffffffffffffffff1673ffffffffffffffffffffffffffffffffffffffff167f8be0079c531659141344cd1fd0a4f28419497f9722a3daafe3b4186f6b6457e060405160405180910390a360008060006101000a81548173ffffffffffffffffffffffffffffffffffffffff021916908373ffffffffffffffffffffffffffffffffffffffff160217905550565b6000600660003373ffffffffffffffffffffffffffffffffffffffff1673ffffffffffffffffffffffffffffffffffffffff1681526020019081526020016000205414610ad657600080fd5b6000610ae182610e53565b9050606481610af09190611bd5565b81610afb9190611c06565b9050610b078282610e98565b5050565b60008060009054906101000a900473ffffffffffffffffffffffffffffffffffffffff16905090565b60008060009054906101000a900473ffffffffffffffffffffffffffffffffffffffff1673ffffffffffffffffffffffffffffffffffffffff163373ffffffffffffffffffffffffffffffffffffffff1614905090565b6002838160048281548110610ba357610ba261187b565b5b906000526020600020906003020160020160009054906101000a900463ffffffff1663ffffffff161015610bd657600080fd5b846005600082815260200190815260200160002060009054906101000a900473ffffffffffffffffffffffffffffffffffffffff1673ffffffffffffffffffffffffffffffffffffffff163373ffffffffffffffffffffffffffffffffffffffff1614610c4257600080fd5b848460048881548110610c5857610c5761187b565b5b90600052602060002090600302016000019182610c76929190611df1565b50505050505050565b610c87610b34565b610c9057600080fd5b8060088190555050565b610ca2610b34565b610cab57600080fd5b610cb4816110fc565b50565b826005600082815260200190815260200160002060009054906101000a900473ffffffffffffffffffffffffffffffffffffffff1673ffffffffffffffffffffffffffffffffffffffff163373ffffffffffffffffffffffffffffffffffffffff1614610d2357600080fd5b600060048581548110610d3957610d3861187b565b5b90600052602060002090600302019050610d52816111f2565b610d5b57600080fd5b60025484610d699190611bd5565b935060006002858360010154610d7f9190611ec1565b610d899190611ef5565b9050604051602001610d9a90611f7d565b6040516020818303038152906040528051906020012084604051602001610dc19190611fc3565b6040516020818303038152906040528051906020012003610e03576063606482610deb9190611bd5565b82610df69190611c06565b610e009190611ec1565b90505b610e426040518060400160405280600681526020017f4e6f4e616d65000000000000000000000000000000000000000000000000000081525082610e98565b610e4b82611219565b505050505050565b60008082604051602001610e679190611fc3565b6040516020818303038152906040528051906020012060001c905060025481610e909190611bd5565b915050919050565b60046040518060c00160405280848152602001838152602001600163ffffffff16815260200160035442610ecc9190611ec1565b63ffffffff168152602001600061ffff168152602001600061ffff1681525090806001815401808255809150506001900390600052602060002090600302016000909190919091506000820151816000019081610f299190611fda565b506020820151816001015560408201518160020160006101000a81548163ffffffff021916908363ffffffff16021790555060608201518160020160046101000a81548163ffffffff021916908363ffffffff16021790555060808201518160020160086101000a81548161ffff021916908361ffff16021790555060a082015181600201600a6101000a81548161ffff021916908361ffff160217905550505060006004805490509050336005600083815260200190815260200160002060006101000a81548173ffffffffffffffffffffffffffffffffffffffff021916908373ffffffffffffffffffffffffffffffffffffffff1602179055506110796001600660003373ffffffffffffffffffffffffffffffffffffffff1673ffffffffffffffffffffffffffffffffffffffff1681526020019081526020016000205461124c90919063ffffffff16565b600660003373ffffffffffffffffffffffffffffffffffffffff1673ffffffffffffffffffffffffffffffffffffffff168152602001908152602001600020819055507f88f026aacbbecc90c18411df4b1185fd8d9be2470f1962f192bf84a27d0704b78184846040516110ef939291906120ac565b60405180910390a1505050565b600073ffffffffffffffffffffffffffffffffffffffff168173ffffffffffffffffffffffffffffffffffffffff160361113557600080fd5b8073ffffffffffffffffffffffffffffffffffffffff1660008054906101000a900473ffffffffffffffffffffffffffffffffffffffff1673ffffffffffffffffffffffffffffffffffffffff167f8be0079c531659141344cd1fd0a4f28419497f9722a3daafe3b4186f6b6457e060405160405180910390a3806000806101000a81548173ffffffffffffffffffffffffffffffffffffffff021916908373ffffffffffffffffffffffffffffffffffffffff16021790555050565b6000428260020160049054906101000a900463ffffffff1663ffffffff1611159050919050565b600354426112279190611ec1565b8160020160046101000a81548163ffffffff021916908363ffffffff16021790555050565b600080828461125b9190611ec1565b90508381101561126e5761126d6120ea565b5b8091505092915050565b6000604051905090565b600080fd5b600080fd5b6000819050919050565b61129f8161128c565b81146112aa57600080fd5b50565b6000813590506112bc81611296565b92915050565b6000602082840312156112d8576112d7611282565b5b60006112e6848285016112ad565b91505092915050565b6000806040838503121561130657611305611282565b5b6000611314858286016112ad565b9250506020611325858286016112ad565b9150509250929050565b600081519050919050565b600082825260208201905092915050565b60005b8381101561136957808201518184015260208101905061134e565b60008484015250505050565b6000601f19601f8301169050919050565b60006113918261132f565b61139b818561133a565b93506113ab81856020860161134b565b6113b481611375565b840191505092915050565b6113c88161128c565b82525050565b600063ffffffff82169050919050565b6113e7816113ce565b82525050565b600061ffff82169050919050565b611404816113ed565b82525050565b600060c08201905081810360008301526114248189611386565b905061143360208301886113bf565b61144060408301876113de565b61144d60608301866113de565b61145a60808301856113fb565b61146760a08301846113fb565b979650505050505050565b600073ffffffffffffffffffffffffffffffffffffffff82169050919050565b600061149d82611472565b9050919050565b6114ad81611492565b81146114b857600080fd5b50565b6000813590506114ca816114a4565b92915050565b6000602082840312156114e6576114e5611282565b5b60006114f4848285016114bb565b91505092915050565b600081519050919050565b600082825260208201905092915050565b6000819050602082019050919050565b6115328161128c565b82525050565b60006115448383611529565b60208301905092915050565b6000602082019050919050565b6000611568826114fd565b6115728185611508565b935061157d83611519565b8060005b838110156115ae5781516115958882611538565b97506115a083611550565b925050600181019050611581565b5085935050505092915050565b600060208201905081810360008301526115d5818461155d565b905092915050565b6115e681611492565b82525050565b600060208201905061160160008301846115dd565b92915050565b600080fd5b600080fd5b7f4e487b7100000000000000000000000000000000000000000000000000000000600052604160045260246000fd5b61164982611375565b810181811067ffffffffffffffff8211171561166857611667611611565b5b80604052505050565b600061167b611278565b90506116878282611640565b919050565b600067ffffffffffffffff8211156116a7576116a6611611565b5b6116b082611375565b9050602081019050919050565b82818337600083830152505050565b60006116df6116da8461168c565b611671565b9050828152602081018484840111156116fb576116fa61160c565b5b6117068482856116bd565b509392505050565b600082601f83011261172357611722611607565b5b81356117338482602086016116cc565b91505092915050565b60006020828403121561175257611751611282565b5b600082013567ffffffffffffffff8111156117705761176f611287565b5b61177c8482850161170e565b91505092915050565b60008115159050919050565b61179a81611785565b82525050565b60006020820190506117b56000830184611791565b92915050565b600080fd5b600080fd5b60008083601f8401126117db576117da611607565b5b8235905067ffffffffffffffff8111156117f8576117f76117bb565b5b602083019150836001820283011115611814576118136117c0565b5b9250929050565b60008060006040848603121561183457611833611282565b5b6000611842868287016112ad565b935050602084013567ffffffffffffffff81111561186357611862611287565b5b61186f868287016117c5565b92509250509250925092565b7f4e487b7100000000000000000000000000000000000000000000000000000000600052603260045260246000fd5b7f4e487b7100000000000000000000000000000000000000000000000000000000600052601160045260246000fd5b60006118e4826113ce565b91506118ef836113ce565b9250828201905063ffffffff81111561190b5761190a6118aa565b5b92915050565b600060208201905061192660008301846113bf565b92915050565b61193581611785565b811461194057600080fd5b50565b6000815190506119528161192c565b92915050565b60008151905061196781611296565b92915050565b6000806000806000806000806000806101408b8d03121561199157611990611282565b5b600061199f8d828e01611943565b9a505060206119b08d828e01611943565b99505060406119c18d828e01611958565b98505060606119d28d828e01611958565b97505060806119e38d828e01611958565b96505060a06119f48d828e01611958565b95505060c0611a058d828e01611958565b94505060e0611a168d828e01611958565b935050610100611a288d828e01611958565b925050610120611a3a8d828e01611958565b9150509295989b9194979a5092959850565b7f4e487b7100000000000000000000000000000000000000000000000000000000600052602260045260246000fd5b60006002820490506001821680611a9357607f821691505b602082108103611aa657611aa5611a4c565b5b50919050565b600081905092915050565b50565b6000611ac7600083611aac565b9150611ad282611ab7565b600082019050919050565b6000611ae882611aba565b9150819050919050565b7f5472616e73666572206661696c65642e00000000000000000000000000000000600082015250565b6000611b2860108361133a565b9150611b3382611af2565b602082019050919050565b60006020820190508181036000830152611b5781611b1b565b9050919050565b6000611b698261128c565b91507fffffffffffffffffffffffffffffffffffffffffffffffffffffffffffffffff8203611b9b57611b9a6118aa565b5b600182019050919050565b7f4e487b7100000000000000000000000000000000000000000000000000000000600052601260045260246000fd5b6000611be08261128c565b9150611beb8361128c565b925082611bfb57611bfa611ba6565b5b828206905092915050565b6000611c118261128c565b9150611c1c8361128c565b9250828203905081811115611c3457611c336118aa565b5b92915050565b600082905092915050565b60008190508160005260206000209050919050565b60006020601f8301049050919050565b600082821b905092915050565b600060088302611ca77fffffffffffffffffffffffffffffffffffffffffffffffffffffffffffffffff82611c6a565b611cb18683611c6a565b95508019841693508086168417925050509392505050565b6000819050919050565b6000611cee611ce9611ce48461128c565b611cc9565b61128c565b9050919050565b6000819050919050565b611d0883611cd3565b611d1c611d1482611cf5565b848454611c77565b825550505050565b600090565b611d31611d24565b611d3c818484611cff565b505050565b5b81811015611d6057611d55600082611d29565b600181019050611d42565b5050565b601f821115611da557611d7681611c45565b611d7f84611c5a565b81016020851015611d8e578190505b611da2611d9a85611c5a565b830182611d41565b50505b505050565b600082821c905092915050565b6000611dc860001984600802611daa565b1980831691505092915050565b6000611de18383611db7565b9150826002028217905092915050565b611dfb8383611c3a565b67ffffffffffffffff811115611e1457611e13611611565b5b611e1e8254611a7b565b611e29828285611d64565b6000601f831160018114611e585760008415611e46578287013590505b611e508582611dd5565b865550611eb8565b601f198416611e6686611c45565b60005b82811015611e8e57848901358255600182019150602085019450602081019050611e69565b86831015611eab5784890135611ea7601f891682611db7565b8355505b6001600288020188555050505b50505050505050565b6000611ecc8261128c565b9150611ed78361128c565b9250828201905080821115611eef57611eee6118aa565b5b92915050565b6000611f008261128c565b9150611f0b8361128c565b925082611f1b57611f1a611ba6565b5b828204905092915050565b600081905092915050565b7f6b69747479000000000000000000000000000000000000000000000000000000600082015250565b6000611f67600583611f26565b9150611f7282611f31565b600582019050919050565b6000611f8882611f5a565b9150819050919050565b6000611f9d8261132f565b611fa78185611f26565b9350611fb781856020860161134b565b80840191505092915050565b6000611fcf8284611f92565b915081905092915050565b611fe38261132f565b67ffffffffffffffff811115611ffc57611ffb611611565b5b6120068254611a7b565b612011828285611d64565b600060209050601f8311600181146120445760008415612032578287015190505b61203c8582611dd5565b8655506120a4565b601f19841661205286611c45565b60005b8281101561207a57848901518255600182019150602085019450602081019050612055565b868310156120975784890151612093601f891682611db7565b8355505b6001600288020188555050505b505050505050565b60006060820190506120c160008301866113bf565b81810360208301526120d38185611386565b90506120e260408301846113bf565b949350505050565b7f4e487b7100000000000000000000000000000000000000000000000000000000600052600160045260246000fdfea264697066735822122048887ab689d3324bbb1509c92edcda4fd484de983122275b849422cea87dc0b364736f6c63430008110033",
  "immutableReferences": {},
  "source": "// SPDX-License-Identifier: MIT\npragma solidity >=0.5.0 < 0.9.0;\nimport \"./zombiefeeding.sol\";\n\ncontract ZombieHelper is ZombieFeeding {\n\n  uint levelUpFee = 0.001 ether;\n\n  modifier aboveLevel(uint _level, uint _zombieId) {\n    require(zombies[_zombieId].level >= _level);\n    _;\n  }\n\n  function withdraw() external onlyOwner {\n    address payable _owner = payable(owner());\n    (bool success, ) = _owner.call{value: address(this).balance}(\"\");\n    require(success, \"Transfer failed.\");\n  }\n\n  function setLevelUpFee(uint _fee) external onlyOwner {\n    levelUpFee = _fee;\n  }\n\n  function levelUp(uint _zombieId) external payable {\n    require(msg.value == levelUpFee);\n    zombies[_zombieId].level = zombies[_zombieId].level + 1;\n  }\n\n  function changeName(uint _zombieId, string calldata _newName) external aboveLevel(2, _zombieId) onlyOwnerOf(_zombieId) {\n    zombies[_zombieId].name = _newName;\n  }\n\n  function changeDna(uint _zombieId, uint _newDna) external aboveLevel(20, _zombieId) onlyOwnerOf(_zombieId) {\n    zombies[_zombieId].dna = _newDna;\n  }\n\n  function getZombiesByOwner(address _owner) external view returns(uint[] memory) {\n    uint[] memory result = new uint[](ownerZombieCount[_owner]);\n    uint counter = 0;\n    for (uint i = 0; i < zombies.length; i++) {\n      if (zombieToOwner[i] == _owner) {\n        result[counter] = i;\n        counter++;\n      }\n    }\n    return result;\n  }\n\n}\n",
  "sourcePath": "/Users/yugagarwal105/Desktop/zombies/CryptoZombies/contracts/zombiehelper.sol",
  "compiler": {
    "name": "solc",
    "version": "0.8.17+commit.8df45f5f.Emscripten.clang"
  },
  "schemaVersion": "3.4.16",
  "updatedAt": "2024-06-01T06:37:27.814Z",
  "devdoc": {
    "kind": "dev",
    "methods": {
      "isOwner()": {
        "returns": {
          "_0": "true if `msg.sender` is the owner of the contract."
        }
      },
      "owner()": {
        "returns": {
          "_0": "the address of the owner."
        }
      },
      "renounceOwnership()": {
        "details": "Allows the current owner to relinquish control of the contract."
      },
      "transferOwnership(address)": {
        "details": "Allows the current owner to transfer control of the contract to a newOwner.",
        "params": {
          "newOwner": "The address to transfer ownership to."
        }
      }
    },
    "version": 1
  },
  "userdoc": {
    "kind": "user",
    "methods": {
      "renounceOwnership()": {
        "notice": "Renouncing to ownership will leave the contract without an owner. It will not be possible to call the functions with the `onlyOwner` modifier anymore."
      }
    },
    "version": 1
  }
}